{
  "_format": "hh-sol-artifact-1",
  "contractName": "SimpleCustomToken",
  "sourceName": "contracts/simple.sol",
  "abi": [
    {
      "inputs": [
        {
          "internalType": "address",
          "name": "defaultAdmin",
          "type": "address"
        },
        {
          "internalType": "address",
          "name": "minter",
          "type": "address"
        }
      ],
      "stateMutability": "nonpayable",
      "type": "constructor"
    },
    {
      "inputs": [],
      "name": "AccessControlBadConfirmation",
      "type": "error"
    },
    {
      "inputs": [
        {
          "internalType": "address",
          "name": "account",
          "type": "address"
        },
        {
          "internalType": "bytes32",
          "name": "neededRole",
          "type": "bytes32"
        }
      ],
      "name": "AccessControlUnauthorizedAccount",
      "type": "error"
    },
    {
      "inputs": [],
      "name": "ECDSAInvalidSignature",
      "type": "error"
    },
    {
      "inputs": [
        {
          "internalType": "uint256",
          "name": "length",
          "type": "uint256"
        }
      ],
      "name": "ECDSAInvalidSignatureLength",
      "type": "error"
    },
    {
      "inputs": [
        {
          "internalType": "bytes32",
          "name": "s",
          "type": "bytes32"
        }
      ],
      "name": "ECDSAInvalidSignatureS",
      "type": "error"
    },
    {
      "inputs": [
        {
          "internalType": "address",
          "name": "spender",
          "type": "address"
        },
        {
          "internalType": "uint256",
          "name": "allowance",
          "type": "uint256"
        },
        {
          "internalType": "uint256",
          "name": "needed",
          "type": "uint256"
        }
      ],
      "name": "ERC20InsufficientAllowance",
      "type": "error"
    },
    {
      "inputs": [
        {
          "internalType": "address",
          "name": "sender",
          "type": "address"
        },
        {
          "internalType": "uint256",
          "name": "balance",
          "type": "uint256"
        },
        {
          "internalType": "uint256",
          "name": "needed",
          "type": "uint256"
        }
      ],
      "name": "ERC20InsufficientBalance",
      "type": "error"
    },
    {
      "inputs": [
        {
          "internalType": "address",
          "name": "approver",
          "type": "address"
        }
      ],
      "name": "ERC20InvalidApprover",
      "type": "error"
    },
    {
      "inputs": [
        {
          "internalType": "address",
          "name": "receiver",
          "type": "address"
        }
      ],
      "name": "ERC20InvalidReceiver",
      "type": "error"
    },
    {
      "inputs": [
        {
          "internalType": "address",
          "name": "sender",
          "type": "address"
        }
      ],
      "name": "ERC20InvalidSender",
      "type": "error"
    },
    {
      "inputs": [
        {
          "internalType": "address",
          "name": "spender",
          "type": "address"
        }
      ],
      "name": "ERC20InvalidSpender",
      "type": "error"
    },
    {
      "inputs": [
        {
          "internalType": "uint256",
          "name": "deadline",
          "type": "uint256"
        }
      ],
      "name": "ERC2612ExpiredSignature",
      "type": "error"
    },
    {
      "inputs": [
        {
          "internalType": "address",
          "name": "signer",
          "type": "address"
        },
        {
          "internalType": "address",
          "name": "owner",
          "type": "address"
        }
      ],
      "name": "ERC2612InvalidSigner",
      "type": "error"
    },
    {
      "inputs": [
        {
          "internalType": "address",
          "name": "account",
          "type": "address"
        },
        {
          "internalType": "uint256",
          "name": "currentNonce",
          "type": "uint256"
        }
      ],
      "name": "InvalidAccountNonce",
      "type": "error"
    },
    {
      "inputs": [],
      "name": "InvalidShortString",
      "type": "error"
    },
    {
      "inputs": [
        {
          "internalType": "string",
          "name": "str",
          "type": "string"
        }
      ],
      "name": "StringTooLong",
      "type": "error"
    },
    {
      "anonymous": false,
      "inputs": [
        {
          "indexed": true,
          "internalType": "address",
          "name": "owner",
          "type": "address"
        },
        {
          "indexed": true,
          "internalType": "address",
          "name": "spender",
          "type": "address"
        },
        {
          "indexed": false,
          "internalType": "uint256",
          "name": "value",
          "type": "uint256"
        }
      ],
      "name": "Approval",
      "type": "event"
    },
    {
      "anonymous": false,
      "inputs": [],
      "name": "EIP712DomainChanged",
      "type": "event"
    },
    {
      "anonymous": false,
      "inputs": [
        {
          "indexed": true,
          "internalType": "bytes32",
          "name": "role",
          "type": "bytes32"
        },
        {
          "indexed": true,
          "internalType": "bytes32",
          "name": "previousAdminRole",
          "type": "bytes32"
        },
        {
          "indexed": true,
          "internalType": "bytes32",
          "name": "newAdminRole",
          "type": "bytes32"
        }
      ],
      "name": "RoleAdminChanged",
      "type": "event"
    },
    {
      "anonymous": false,
      "inputs": [
        {
          "indexed": true,
          "internalType": "bytes32",
          "name": "role",
          "type": "bytes32"
        },
        {
          "indexed": true,
          "internalType": "address",
          "name": "account",
          "type": "address"
        },
        {
          "indexed": true,
          "internalType": "address",
          "name": "sender",
          "type": "address"
        }
      ],
      "name": "RoleGranted",
      "type": "event"
    },
    {
      "anonymous": false,
      "inputs": [
        {
          "indexed": true,
          "internalType": "bytes32",
          "name": "role",
          "type": "bytes32"
        },
        {
          "indexed": true,
          "internalType": "address",
          "name": "account",
          "type": "address"
        },
        {
          "indexed": true,
          "internalType": "address",
          "name": "sender",
          "type": "address"
        }
      ],
      "name": "RoleRevoked",
      "type": "event"
    },
    {
      "anonymous": false,
      "inputs": [
        {
          "indexed": true,
          "internalType": "address",
          "name": "from",
          "type": "address"
        },
        {
          "indexed": true,
          "internalType": "address",
          "name": "to",
          "type": "address"
        },
        {
          "indexed": false,
          "internalType": "uint256",
          "name": "value",
          "type": "uint256"
        }
      ],
      "name": "Transfer",
      "type": "event"
    },
    {
      "inputs": [],
      "name": "DEFAULT_ADMIN_ROLE",
      "outputs": [
        {
          "internalType": "bytes32",
          "name": "",
          "type": "bytes32"
        }
      ],
      "stateMutability": "view",
      "type": "function"
    },
    {
      "inputs": [],
      "name": "DOMAIN_SEPARATOR",
      "outputs": [
        {
          "internalType": "bytes32",
          "name": "",
          "type": "bytes32"
        }
      ],
      "stateMutability": "view",
      "type": "function"
    },
    {
      "inputs": [],
      "name": "MINTER_ROLE",
      "outputs": [
        {
          "internalType": "bytes32",
          "name": "",
          "type": "bytes32"
        }
      ],
      "stateMutability": "view",
      "type": "function"
    },
    {
      "inputs": [
        {
          "internalType": "address",
          "name": "owner",
          "type": "address"
        },
        {
          "internalType": "address",
          "name": "spender",
          "type": "address"
        }
      ],
      "name": "allowance",
      "outputs": [
        {
          "internalType": "uint256",
          "name": "",
          "type": "uint256"
        }
      ],
      "stateMutability": "view",
      "type": "function"
    },
    {
      "inputs": [
        {
          "internalType": "address",
          "name": "spender",
          "type": "address"
        },
        {
          "internalType": "uint256",
          "name": "value",
          "type": "uint256"
        }
      ],
      "name": "approve",
      "outputs": [
        {
          "internalType": "bool",
          "name": "",
          "type": "bool"
        }
      ],
      "stateMutability": "nonpayable",
      "type": "function"
    },
    {
      "inputs": [
        {
          "internalType": "address",
          "name": "account",
          "type": "address"
        }
      ],
      "name": "balanceOf",
      "outputs": [
        {
          "internalType": "uint256",
          "name": "",
          "type": "uint256"
        }
      ],
      "stateMutability": "view",
      "type": "function"
    },
    {
      "inputs": [
        {
          "internalType": "uint256",
          "name": "value",
          "type": "uint256"
        }
      ],
      "name": "burn",
      "outputs": [],
      "stateMutability": "nonpayable",
      "type": "function"
    },
    {
      "inputs": [
        {
          "internalType": "address",
          "name": "account",
          "type": "address"
        },
        {
          "internalType": "uint256",
          "name": "amount",
          "type": "uint256"
        }
      ],
      "name": "burn",
      "outputs": [],
      "stateMutability": "nonpayable",
      "type": "function"
    },
    {
      "inputs": [
        {
          "internalType": "address",
          "name": "account",
          "type": "address"
        },
        {
          "internalType": "uint256",
          "name": "value",
          "type": "uint256"
        }
      ],
      "name": "burnFrom",
      "outputs": [],
      "stateMutability": "nonpayable",
      "type": "function"
    },
    {
      "inputs": [],
      "name": "decimals",
      "outputs": [
        {
          "internalType": "uint8",
          "name": "",
          "type": "uint8"
        }
      ],
      "stateMutability": "view",
      "type": "function"
    },
    {
      "inputs": [],
      "name": "eip712Domain",
      "outputs": [
        {
          "internalType": "bytes1",
          "name": "fields",
          "type": "bytes1"
        },
        {
          "internalType": "string",
          "name": "name",
          "type": "string"
        },
        {
          "internalType": "string",
          "name": "version",
          "type": "string"
        },
        {
          "internalType": "uint256",
          "name": "chainId",
          "type": "uint256"
        },
        {
          "internalType": "address",
          "name": "verifyingContract",
          "type": "address"
        },
        {
          "internalType": "bytes32",
          "name": "salt",
          "type": "bytes32"
        },
        {
          "internalType": "uint256[]",
          "name": "extensions",
          "type": "uint256[]"
        }
      ],
      "stateMutability": "view",
      "type": "function"
    },
    {
      "inputs": [
        {
          "internalType": "bytes32",
          "name": "role",
          "type": "bytes32"
        }
      ],
      "name": "getRoleAdmin",
      "outputs": [
        {
          "internalType": "bytes32",
          "name": "",
          "type": "bytes32"
        }
      ],
      "stateMutability": "view",
      "type": "function"
    },
    {
      "inputs": [
        {
          "internalType": "bytes32",
          "name": "role",
          "type": "bytes32"
        },
        {
          "internalType": "address",
          "name": "account",
          "type": "address"
        }
      ],
      "name": "grantRole",
      "outputs": [],
      "stateMutability": "nonpayable",
      "type": "function"
    },
    {
      "inputs": [
        {
          "internalType": "bytes32",
          "name": "role",
          "type": "bytes32"
        },
        {
          "internalType": "address",
          "name": "account",
          "type": "address"
        }
      ],
      "name": "hasRole",
      "outputs": [
        {
          "internalType": "bool",
          "name": "",
          "type": "bool"
        }
      ],
      "stateMutability": "view",
      "type": "function"
    },
    {
      "inputs": [
        {
          "internalType": "address",
          "name": "to",
          "type": "address"
        },
        {
          "internalType": "uint256",
          "name": "amount",
          "type": "uint256"
        }
      ],
      "name": "mint",
      "outputs": [],
      "stateMutability": "nonpayable",
      "type": "function"
    },
    {
      "inputs": [],
      "name": "name",
      "outputs": [
        {
          "internalType": "string",
          "name": "",
          "type": "string"
        }
      ],
      "stateMutability": "view",
      "type": "function"
    },
    {
      "inputs": [
        {
          "internalType": "address",
          "name": "owner",
          "type": "address"
        }
      ],
      "name": "nonces",
      "outputs": [
        {
          "internalType": "uint256",
          "name": "",
          "type": "uint256"
        }
      ],
      "stateMutability": "view",
      "type": "function"
    },
    {
      "inputs": [
        {
          "internalType": "address",
          "name": "owner",
          "type": "address"
        },
        {
          "internalType": "address",
          "name": "spender",
          "type": "address"
        },
        {
          "internalType": "uint256",
          "name": "value",
          "type": "uint256"
        },
        {
          "internalType": "uint256",
          "name": "deadline",
          "type": "uint256"
        },
        {
          "internalType": "uint8",
          "name": "v",
          "type": "uint8"
        },
        {
          "internalType": "bytes32",
          "name": "r",
          "type": "bytes32"
        },
        {
          "internalType": "bytes32",
          "name": "s",
          "type": "bytes32"
        }
      ],
      "name": "permit",
      "outputs": [],
      "stateMutability": "nonpayable",
      "type": "function"
    },
    {
      "inputs": [
        {
          "internalType": "bytes32",
          "name": "role",
          "type": "bytes32"
        },
        {
          "internalType": "address",
          "name": "callerConfirmation",
          "type": "address"
        }
      ],
      "name": "renounceRole",
      "outputs": [],
      "stateMutability": "nonpayable",
      "type": "function"
    },
    {
      "inputs": [
        {
          "internalType": "bytes32",
          "name": "role",
          "type": "bytes32"
        },
        {
          "internalType": "address",
          "name": "account",
          "type": "address"
        }
      ],
      "name": "revokeRole",
      "outputs": [],
      "stateMutability": "nonpayable",
      "type": "function"
    },
    {
      "inputs": [
        {
          "internalType": "bytes4",
          "name": "interfaceId",
          "type": "bytes4"
        }
      ],
      "name": "supportsInterface",
      "outputs": [
        {
          "internalType": "bool",
          "name": "",
          "type": "bool"
        }
      ],
      "stateMutability": "view",
      "type": "function"
    },
    {
      "inputs": [],
      "name": "symbol",
      "outputs": [
        {
          "internalType": "string",
          "name": "",
          "type": "string"
        }
      ],
      "stateMutability": "view",
      "type": "function"
    },
    {
      "inputs": [],
      "name": "totalSupply",
      "outputs": [
        {
          "internalType": "uint256",
          "name": "",
          "type": "uint256"
        }
      ],
      "stateMutability": "view",
      "type": "function"
    },
    {
      "inputs": [
        {
          "internalType": "address",
          "name": "to",
          "type": "address"
        },
        {
          "internalType": "uint256",
          "name": "value",
          "type": "uint256"
        }
      ],
      "name": "transfer",
      "outputs": [
        {
          "internalType": "bool",
          "name": "",
          "type": "bool"
        }
      ],
      "stateMutability": "nonpayable",
      "type": "function"
    },
    {
      "inputs": [
        {
          "internalType": "address",
          "name": "from",
          "type": "address"
        },
        {
          "internalType": "address",
          "name": "to",
          "type": "address"
        },
        {
          "internalType": "uint256",
          "name": "value",
          "type": "uint256"
        }
      ],
      "name": "transferFrom",
      "outputs": [
        {
          "internalType": "bool",
          "name": "",
          "type": "bool"
        }
      ],
      "stateMutability": "nonpayable",
      "type": "function"
    }
  ],
  "bytecode": "0x61016060405234801561001157600080fd5b5060405161360338038061360383398181016040528101906100339190610802565b6040518060400160405280601181526020017f53696d706c65437573746f6d546f6b656e000000000000000000000000000000815250806040518060400160405280600181526020017f31000000000000000000000000000000000000000000000000000000000000008152506040518060400160405280601181526020017f53696d706c65437573746f6d546f6b656e0000000000000000000000000000008152506040518060400160405280600381526020017f5343540000000000000000000000000000000000000000000000000000000000815250816003908161011b9190610a92565b50806004908161012b9190610a92565b50505061014260068361025b60201b90919060201c565b610120818152505061015e60078261025b60201b90919060201c565b6101408181525050818051906020012060e08181525050808051906020012061010081815250504660a0818152505061019b6102ab60201b60201c565b608081815250503073ffffffffffffffffffffffffffffffffffffffff1660c08173ffffffffffffffffffffffffffffffffffffffff168152505050505061020f336101eb61030660201b60201c565b600a6101f79190610cd3565b6127106102049190610d1e565b61030f60201b60201c565b6102226000801b8361039760201b60201c565b506102537f9f2df0fed2c77648de5860a4cc508cd0818c85b8b8a1ab4ceeef8d981c8956a68261039760201b60201c565b505050610fc9565b600060208351101561027d576102768361049560201b60201c565b90506102a5565b8261028d836104fd60201b60201c565b600001908161029c9190610a92565b5060ff60001b90505b92915050565b60007f8b73c3c69bb8fe3d512ecc4cf759cc79239f7b179b0ffacaa9a75d522b39400f60e0516101005146306040516020016102eb959493929190610d97565b60405160208183030381529060405280519060200120905090565b60006012905090565b600073ffffffffffffffffffffffffffffffffffffffff168273ffffffffffffffffffffffffffffffffffffffff16036103815760006040517fec442f050000000000000000000000000000000000000000000000000000000081526004016103789190610dea565b60405180910390fd5b6103936000838361050760201b60201c565b5050565b60006103a9838361072c60201b60201c565b61048a5760016005600085815260200190815260200160002060000160008473ffffffffffffffffffffffffffffffffffffffff1673ffffffffffffffffffffffffffffffffffffffff16815260200190815260200160002060006101000a81548160ff02191690831515021790555061042761079760201b60201c565b73ffffffffffffffffffffffffffffffffffffffff168273ffffffffffffffffffffffffffffffffffffffff16847f2f8788117e7eff1d82e926ec794901d17c78024a50270940304540a733656f0d60405160405180910390a46001905061048f565b600090505b92915050565b600080829050601f815111156104e257826040517f305a27a90000000000000000000000000000000000000000000000000000000081526004016104d99190610e8a565b60405180910390fd5b8051816104ee90610edc565b60001c1760001b915050919050565b6000819050919050565b600073ffffffffffffffffffffffffffffffffffffffff168373ffffffffffffffffffffffffffffffffffffffff160361055957806002600082825461054d9190610f43565b9250508190555061062c565b60008060008573ffffffffffffffffffffffffffffffffffffffff1673ffffffffffffffffffffffffffffffffffffffff168152602001908152602001600020549050818110156105e5578381836040517fe450d38c0000000000000000000000000000000000000000000000000000000081526004016105dc93929190610f77565b60405180910390fd5b8181036000808673ffffffffffffffffffffffffffffffffffffffff1673ffffffffffffffffffffffffffffffffffffffff16815260200190815260200160002081905550505b600073ffffffffffffffffffffffffffffffffffffffff168273ffffffffffffffffffffffffffffffffffffffff160361067557806002600082825403925050819055506106c2565b806000808473ffffffffffffffffffffffffffffffffffffffff1673ffffffffffffffffffffffffffffffffffffffff168152602001908152602001600020600082825401925050819055505b8173ffffffffffffffffffffffffffffffffffffffff168373ffffffffffffffffffffffffffffffffffffffff167fddf252ad1be2c89b69c2b068fc378daa952ba7f163c4a11628f55a4df523b3ef8360405161071f9190610fae565b60405180910390a3505050565b60006005600084815260200190815260200160002060000160008373ffffffffffffffffffffffffffffffffffffffff1673ffffffffffffffffffffffffffffffffffffffff16815260200190815260200160002060009054906101000a900460ff16905092915050565b600033905090565b600080fd5b600073ffffffffffffffffffffffffffffffffffffffff82169050919050565b60006107cf826107a4565b9050919050565b6107df816107c4565b81146107ea57600080fd5b50565b6000815190506107fc816107d6565b92915050565b600080604083850312156108195761081861079f565b5b6000610827858286016107ed565b9250506020610838858286016107ed565b9150509250929050565b600081519050919050565b7f4e487b7100000000000000000000000000000000000000000000000000000000600052604160045260246000fd5b7f4e487b7100000000000000000000000000000000000000000000000000000000600052602260045260246000fd5b600060028204905060018216806108c357607f821691505b6020821081036108d6576108d561087c565b5b50919050565b60008190508160005260206000209050919050565b60006020601f8301049050919050565b600082821b905092915050565b60006008830261093e7fffffffffffffffffffffffffffffffffffffffffffffffffffffffffffffffff82610901565b6109488683610901565b95508019841693508086168417925050509392505050565b6000819050919050565b6000819050919050565b600061098f61098a61098584610960565b61096a565b610960565b9050919050565b6000819050919050565b6109a983610974565b6109bd6109b582610996565b84845461090e565b825550505050565b600090565b6109d26109c5565b6109dd8184846109a0565b505050565b5b81811015610a01576109f66000826109ca565b6001810190506109e3565b5050565b601f821115610a4657610a17816108dc565b610a20846108f1565b81016020851015610a2f578190505b610a43610a3b856108f1565b8301826109e2565b50505b505050565b600082821c905092915050565b6000610a6960001984600802610a4b565b1980831691505092915050565b6000610a828383610a58565b9150826002028217905092915050565b610a9b82610842565b67ffffffffffffffff811115610ab457610ab361084d565b5b610abe82546108ab565b610ac9828285610a05565b600060209050601f831160018114610afc5760008415610aea578287015190505b610af48582610a76565b865550610b5c565b601f198416610b0a866108dc565b60005b82811015610b3257848901518255600182019150602085019450602081019050610b0d565b86831015610b4f5784890151610b4b601f891682610a58565b8355505b6001600288020188555050505b505050505050565b7f4e487b7100000000000000000000000000000000000000000000000000000000600052601160045260246000fd5b60008160011c9050919050565b6000808291508390505b6001851115610bea57808604811115610bc657610bc5610b64565b5b6001851615610bd55780820291505b8081029050610be385610b93565b9450610baa565b94509492505050565b600082610c035760019050610cbf565b81610c115760009050610cbf565b8160018114610c275760028114610c3157610c60565b6001915050610cbf565b60ff841115610c4357610c42610b64565b5b8360020a915084821115610c5a57610c59610b64565b5b50610cbf565b5060208310610133831016604e8410600b8410161715610c955782820a905083811115610c9057610c8f610b64565b5b610cbf565b610ca28484846001610ba0565b92509050818404811115610cb957610cb8610b64565b5b81810290505b9392505050565b600060ff82169050919050565b6000610cde82610960565b9150610ce983610cc6565b9250610d167fffffffffffffffffffffffffffffffffffffffffffffffffffffffffffffffff8484610bf3565b905092915050565b6000610d2982610960565b9150610d3483610960565b9250828202610d4281610960565b91508282048414831517610d5957610d58610b64565b5b5092915050565b6000819050919050565b610d7381610d60565b82525050565b610d8281610960565b82525050565b610d91816107c4565b82525050565b600060a082019050610dac6000830188610d6a565b610db96020830187610d6a565b610dc66040830186610d6a565b610dd36060830185610d79565b610de06080830184610d88565b9695505050505050565b6000602082019050610dff6000830184610d88565b92915050565b600082825260208201905092915050565b60005b83811015610e34578082015181840152602081019050610e19565b60008484015250505050565b6000601f19601f8301169050919050565b6000610e5c82610842565b610e668185610e05565b9350610e76818560208601610e16565b610e7f81610e40565b840191505092915050565b60006020820190508181036000830152610ea48184610e51565b905092915050565b600081519050919050565b6000819050602082019050919050565b6000610ed38251610d60565b80915050919050565b6000610ee782610eac565b82610ef184610eb7565b9050610efc81610ec7565b92506020821015610f3c57610f377fffffffffffffffffffffffffffffffffffffffffffffffffffffffffffffffff83602003600802610901565b831692505b5050919050565b6000610f4e82610960565b9150610f5983610960565b9250828201905080821115610f7157610f70610b64565b5b92915050565b6000606082019050610f8c6000830186610d88565b610f996020830185610d79565b610fa66040830184610d79565b949350505050565b6000602082019050610fc36000830184610d79565b92915050565b60805160a05160c05160e0516101005161012051610140516125e0611023600039600061126e01526000611233015260006117d4015260006117b301526000610f3701526000610f8d01526000610fb601526125e06000f3fe608060405234801561001057600080fd5b50600436106101735760003560e01c806370a08231116100de5780639dc29fac11610097578063d505accf11610071578063d505accf14610478578063d539139314610494578063d547741f146104b2578063dd62ed3e146104ce57610173565b80639dc29fac1461040e578063a217fddf1461042a578063a9059cbb1461044857610173565b806370a082311461032057806379cc6790146103505780637ecebe001461036c57806384b0196e1461039c57806391d14854146103c057806395d89b41146103f057610173565b80632f2ff15d116101305780632f2ff15d14610274578063313ce567146102905780633644e515146102ae57806336568abe146102cc57806340c10f19146102e857806342966c681461030457610173565b806301ffc9a71461017857806306fdde03146101a8578063095ea7b3146101c657806318160ddd146101f657806323b872dd14610214578063248a9ca314610244575b600080fd5b610192600480360381019061018d9190611c8e565b6104fe565b60405161019f9190611cd6565b60405180910390f35b6101b0610578565b6040516101bd9190611d81565b60405180910390f35b6101e060048036038101906101db9190611e37565b61060a565b6040516101ed9190611cd6565b60405180910390f35b6101fe61062d565b60405161020b9190611e86565b60405180910390f35b61022e60048036038101906102299190611ea1565b610637565b60405161023b9190611cd6565b60405180910390f35b61025e60048036038101906102599190611f2a565b610666565b60405161026b9190611f66565b60405180910390f35b61028e60048036038101906102899190611f81565b610686565b005b6102986106a8565b6040516102a59190611fdd565b60405180910390f35b6102b66106b1565b6040516102c39190611f66565b60405180910390f35b6102e660048036038101906102e19190611f81565b6106c0565b005b61030260048036038101906102fd9190611e37565b61073b565b005b61031e60048036038101906103199190611ff8565b610774565b005b61033a60048036038101906103359190612025565b610788565b6040516103479190611e86565b60405180910390f35b61036a60048036038101906103659190611e37565b6107d0565b005b61038660048036038101906103819190612025565b6107f0565b6040516103939190611e86565b60405180910390f35b6103a4610802565b6040516103b7979695949392919061215a565b60405180910390f35b6103da60048036038101906103d59190611f81565b6108ac565b6040516103e79190611cd6565b60405180910390f35b6103f8610917565b6040516104059190611d81565b60405180910390f35b61042860048036038101906104239190611e37565b6109a9565b005b6104326109e2565b60405161043f9190611f66565b60405180910390f35b610462600480360381019061045d9190611e37565b6109e9565b60405161046f9190611cd6565b60405180910390f35b610492600480360381019061048d919061220a565b610a0c565b005b61049c610b54565b6040516104a99190611f66565b60405180910390f35b6104cc60048036038101906104c79190611f81565b610b78565b005b6104e860048036038101906104e391906122ac565b610b9a565b6040516104f59190611e86565b60405180910390f35b60007f7965db0b000000000000000000000000000000000000000000000000000000007bffffffffffffffffffffffffffffffffffffffffffffffffffffffff1916827bffffffffffffffffffffffffffffffffffffffffffffffffffffffff19161480610571575061057082610c21565b5b9050919050565b6060600380546105879061231b565b80601f01602080910402602001604051908101604052809291908181526020018280546105b39061231b565b80156106005780601f106105d557610100808354040283529160200191610600565b820191906000526020600020905b8154815290600101906020018083116105e357829003601f168201915b5050505050905090565b600080610615610c8b565b9050610622818585610c93565b600191505092915050565b6000600254905090565b600080610642610c8b565b905061064f858285610ca5565b61065a858585610d39565b60019150509392505050565b600060056000838152602001908152602001600020600101549050919050565b61068f82610666565b61069881610e2d565b6106a28383610e41565b50505050565b60006012905090565b60006106bb610f33565b905090565b6106c8610c8b565b73ffffffffffffffffffffffffffffffffffffffff168173ffffffffffffffffffffffffffffffffffffffff161461072c576040517f6697b23200000000000000000000000000000000000000000000000000000000815260040160405180910390fd5b6107368282610fea565b505050565b7f9f2df0fed2c77648de5860a4cc508cd0818c85b8b8a1ab4ceeef8d981c8956a661076581610e2d565b61076f83836110dd565b505050565b61078561077f610c8b565b8261115f565b50565b60008060008373ffffffffffffffffffffffffffffffffffffffff1673ffffffffffffffffffffffffffffffffffffffff168152602001908152602001600020549050919050565b6107e2826107dc610c8b565b83610ca5565b6107ec828261115f565b5050565b60006107fb826111e1565b9050919050565b60006060806000806000606061081661122a565b61081e611265565b46306000801b600067ffffffffffffffff81111561083f5761083e61234c565b5b60405190808252806020026020018201604052801561086d5781602001602082028036833780820191505090505b507f0f00000000000000000000000000000000000000000000000000000000000000959493929190965096509650965096509650965090919293949596565b60006005600084815260200190815260200160002060000160008373ffffffffffffffffffffffffffffffffffffffff1673ffffffffffffffffffffffffffffffffffffffff16815260200190815260200160002060009054906101000a900460ff16905092915050565b6060600480546109269061231b565b80601f01602080910402602001604051908101604052809291908181526020018280546109529061231b565b801561099f5780601f106109745761010080835404028352916020019161099f565b820191906000526020600020905b81548152906001019060200180831161098257829003601f168201915b5050505050905090565b7f9f2df0fed2c77648de5860a4cc508cd0818c85b8b8a1ab4ceeef8d981c8956a66109d381610e2d565b6109dd838361115f565b505050565b6000801b81565b6000806109f4610c8b565b9050610a01818585610d39565b600191505092915050565b83421115610a5157836040517f62791302000000000000000000000000000000000000000000000000000000008152600401610a489190611e86565b60405180910390fd5b60007f6e71edae12b1b97f4d1f60370fef10105fa2faae0126114a169c64845d6126c9888888610a808c6112a0565b89604051602001610a969695949392919061237b565b6040516020818303038152906040528051906020012090506000610ab9826112f7565b90506000610ac982878787611311565b90508973ffffffffffffffffffffffffffffffffffffffff168173ffffffffffffffffffffffffffffffffffffffff1614610b3d57808a6040517f4b800e46000000000000000000000000000000000000000000000000000000008152600401610b349291906123dc565b60405180910390fd5b610b488a8a8a610c93565b50505050505050505050565b7f9f2df0fed2c77648de5860a4cc508cd0818c85b8b8a1ab4ceeef8d981c8956a681565b610b8182610666565b610b8a81610e2d565b610b948383610fea565b50505050565b6000600160008473ffffffffffffffffffffffffffffffffffffffff1673ffffffffffffffffffffffffffffffffffffffff16815260200190815260200160002060008373ffffffffffffffffffffffffffffffffffffffff1673ffffffffffffffffffffffffffffffffffffffff16815260200190815260200160002054905092915050565b60007f01ffc9a7000000000000000000000000000000000000000000000000000000007bffffffffffffffffffffffffffffffffffffffffffffffffffffffff1916827bffffffffffffffffffffffffffffffffffffffffffffffffffffffff1916149050919050565b600033905090565b610ca08383836001611341565b505050565b6000610cb18484610b9a565b90507fffffffffffffffffffffffffffffffffffffffffffffffffffffffffffffffff8114610d335781811015610d23578281836040517ffb8f41b2000000000000000000000000000000000000000000000000000000008152600401610d1a93929190612405565b60405180910390fd5b610d3284848484036000611341565b5b50505050565b600073ffffffffffffffffffffffffffffffffffffffff168373ffffffffffffffffffffffffffffffffffffffff1603610dab5760006040517f96c6fd1e000000000000000000000000000000000000000000000000000000008152600401610da2919061243c565b60405180910390fd5b600073ffffffffffffffffffffffffffffffffffffffff168273ffffffffffffffffffffffffffffffffffffffff1603610e1d5760006040517fec442f05000000000000000000000000000000000000000000000000000000008152600401610e14919061243c565b60405180910390fd5b610e28838383611518565b505050565b610e3e81610e39610c8b565b61173d565b50565b6000610e4d83836108ac565b610f285760016005600085815260200190815260200160002060000160008473ffffffffffffffffffffffffffffffffffffffff1673ffffffffffffffffffffffffffffffffffffffff16815260200190815260200160002060006101000a81548160ff021916908315150217905550610ec5610c8b565b73ffffffffffffffffffffffffffffffffffffffff168273ffffffffffffffffffffffffffffffffffffffff16847f2f8788117e7eff1d82e926ec794901d17c78024a50270940304540a733656f0d60405160405180910390a460019050610f2d565b600090505b92915050565b60007f000000000000000000000000000000000000000000000000000000000000000073ffffffffffffffffffffffffffffffffffffffff163073ffffffffffffffffffffffffffffffffffffffff16148015610faf57507f000000000000000000000000000000000000000000000000000000000000000046145b15610fdc577f00000000000000000000000000000000000000000000000000000000000000009050610fe7565b610fe461178e565b90505b90565b6000610ff683836108ac565b156110d25760006005600085815260200190815260200160002060000160008473ffffffffffffffffffffffffffffffffffffffff1673ffffffffffffffffffffffffffffffffffffffff16815260200190815260200160002060006101000a81548160ff02191690831515021790555061106f610c8b565b73ffffffffffffffffffffffffffffffffffffffff168273ffffffffffffffffffffffffffffffffffffffff16847ff6391f5c32d9c69d2a47ea670b442974b53935d1edc7fd64eb21e047a839171b60405160405180910390a4600190506110d7565b600090505b92915050565b600073ffffffffffffffffffffffffffffffffffffffff168273ffffffffffffffffffffffffffffffffffffffff160361114f5760006040517fec442f05000000000000000000000000000000000000000000000000000000008152600401611146919061243c565b60405180910390fd5b61115b60008383611518565b5050565b600073ffffffffffffffffffffffffffffffffffffffff168273ffffffffffffffffffffffffffffffffffffffff16036111d15760006040517f96c6fd1e0000000000000000000000000000000000000000000000000000000081526004016111c8919061243c565b60405180910390fd5b6111dd82600083611518565b5050565b6000600860008373ffffffffffffffffffffffffffffffffffffffff1673ffffffffffffffffffffffffffffffffffffffff168152602001908152602001600020549050919050565b606061126060067f000000000000000000000000000000000000000000000000000000000000000061182490919063ffffffff16565b905090565b606061129b60077f000000000000000000000000000000000000000000000000000000000000000061182490919063ffffffff16565b905090565b6000600860008373ffffffffffffffffffffffffffffffffffffffff1673ffffffffffffffffffffffffffffffffffffffff1681526020019081526020016000206000815480929190600101919050559050919050565b600061130a611304610f33565b836118d4565b9050919050565b60008060008061132388888888611915565b9250925092506113338282611a09565b829350505050949350505050565b600073ffffffffffffffffffffffffffffffffffffffff168473ffffffffffffffffffffffffffffffffffffffff16036113b35760006040517fe602df050000000000000000000000000000000000000000000000000000000081526004016113aa919061243c565b60405180910390fd5b600073ffffffffffffffffffffffffffffffffffffffff168373ffffffffffffffffffffffffffffffffffffffff16036114255760006040517f94280d6200000000000000000000000000000000000000000000000000000000815260040161141c919061243c565b60405180910390fd5b81600160008673ffffffffffffffffffffffffffffffffffffffff1673ffffffffffffffffffffffffffffffffffffffff16815260200190815260200160002060008573ffffffffffffffffffffffffffffffffffffffff1673ffffffffffffffffffffffffffffffffffffffff168152602001908152602001600020819055508015611512578273ffffffffffffffffffffffffffffffffffffffff168473ffffffffffffffffffffffffffffffffffffffff167f8c5be1e5ebec7d5bd14f71427d1e84f3dd0314c0f7b2291e5b200ac8c7c3b925846040516115099190611e86565b60405180910390a35b50505050565b600073ffffffffffffffffffffffffffffffffffffffff168373ffffffffffffffffffffffffffffffffffffffff160361156a57806002600082825461155e9190612486565b9250508190555061163d565b60008060008573ffffffffffffffffffffffffffffffffffffffff1673ffffffffffffffffffffffffffffffffffffffff168152602001908152602001600020549050818110156115f6578381836040517fe450d38c0000000000000000000000000000000000000000000000000000000081526004016115ed93929190612405565b60405180910390fd5b8181036000808673ffffffffffffffffffffffffffffffffffffffff1673ffffffffffffffffffffffffffffffffffffffff16815260200190815260200160002081905550505b600073ffffffffffffffffffffffffffffffffffffffff168273ffffffffffffffffffffffffffffffffffffffff160361168657806002600082825403925050819055506116d3565b806000808473ffffffffffffffffffffffffffffffffffffffff1673ffffffffffffffffffffffffffffffffffffffff168152602001908152602001600020600082825401925050819055505b8173ffffffffffffffffffffffffffffffffffffffff168373ffffffffffffffffffffffffffffffffffffffff167fddf252ad1be2c89b69c2b068fc378daa952ba7f163c4a11628f55a4df523b3ef836040516117309190611e86565b60405180910390a3505050565b61174782826108ac565b61178a5780826040517fe2517d3f0000000000000000000000000000000000000000000000000000000081526004016117819291906124ba565b60405180910390fd5b5050565b60007f8b73c3c69bb8fe3d512ecc4cf759cc79239f7b179b0ffacaa9a75d522b39400f7f00000000000000000000000000000000000000000000000000000000000000007f000000000000000000000000000000000000000000000000000000000000000046306040516020016118099594939291906124e3565b60405160208183030381529060405280519060200120905090565b606060ff60001b83146118415761183a83611b6d565b90506118ce565b81805461184d9061231b565b80601f01602080910402602001604051908101604052809291908181526020018280546118799061231b565b80156118c65780601f1061189b576101008083540402835291602001916118c6565b820191906000526020600020905b8154815290600101906020018083116118a957829003601f168201915b505050505090505b92915050565b60006040517f190100000000000000000000000000000000000000000000000000000000000081528360028201528260228201526042812091505092915050565b60008060007f7fffffffffffffffffffffffffffffff5d576e7357a4501ddfe92f46681b20a08460001c11156119555760006003859250925092506119ff565b60006001888888886040516000815260200160405260405161197a9493929190612536565b6020604051602081039080840390855afa15801561199c573d6000803e3d6000fd5b505050602060405103519050600073ffffffffffffffffffffffffffffffffffffffff168173ffffffffffffffffffffffffffffffffffffffff16036119f057600060016000801b935093509350506119ff565b8060008060001b935093509350505b9450945094915050565b60006003811115611a1d57611a1c61257b565b5b826003811115611a3057611a2f61257b565b5b0315611b695760016003811115611a4a57611a4961257b565b5b826003811115611a5d57611a5c61257b565b5b03611a94576040517ff645eedf00000000000000000000000000000000000000000000000000000000815260040160405180910390fd5b60026003811115611aa857611aa761257b565b5b826003811115611abb57611aba61257b565b5b03611b00578060001c6040517ffce698f7000000000000000000000000000000000000000000000000000000008152600401611af79190611e86565b60405180910390fd5b600380811115611b1357611b1261257b565b5b826003811115611b2657611b2561257b565b5b03611b6857806040517fd78bce0c000000000000000000000000000000000000000000000000000000008152600401611b5f9190611f66565b60405180910390fd5b5b5050565b60606000611b7a83611be1565b90506000602067ffffffffffffffff811115611b9957611b9861234c565b5b6040519080825280601f01601f191660200182016040528015611bcb5781602001600182028036833780820191505090505b5090508181528360208201528092505050919050565b60008060ff8360001c169050601f811115611c28576040517fb3512b0c00000000000000000000000000000000000000000000000000000000815260040160405180910390fd5b80915050919050565b600080fd5b60007fffffffff0000000000000000000000000000000000000000000000000000000082169050919050565b611c6b81611c36565b8114611c7657600080fd5b50565b600081359050611c8881611c62565b92915050565b600060208284031215611ca457611ca3611c31565b5b6000611cb284828501611c79565b91505092915050565b60008115159050919050565b611cd081611cbb565b82525050565b6000602082019050611ceb6000830184611cc7565b92915050565b600081519050919050565b600082825260208201905092915050565b60005b83811015611d2b578082015181840152602081019050611d10565b60008484015250505050565b6000601f19601f8301169050919050565b6000611d5382611cf1565b611d5d8185611cfc565b9350611d6d818560208601611d0d565b611d7681611d37565b840191505092915050565b60006020820190508181036000830152611d9b8184611d48565b905092915050565b600073ffffffffffffffffffffffffffffffffffffffff82169050919050565b6000611dce82611da3565b9050919050565b611dde81611dc3565b8114611de957600080fd5b50565b600081359050611dfb81611dd5565b92915050565b6000819050919050565b611e1481611e01565b8114611e1f57600080fd5b50565b600081359050611e3181611e0b565b92915050565b60008060408385031215611e4e57611e4d611c31565b5b6000611e5c85828601611dec565b9250506020611e6d85828601611e22565b9150509250929050565b611e8081611e01565b82525050565b6000602082019050611e9b6000830184611e77565b92915050565b600080600060608486031215611eba57611eb9611c31565b5b6000611ec886828701611dec565b9350506020611ed986828701611dec565b9250506040611eea86828701611e22565b9150509250925092565b6000819050919050565b611f0781611ef4565b8114611f1257600080fd5b50565b600081359050611f2481611efe565b92915050565b600060208284031215611f4057611f3f611c31565b5b6000611f4e84828501611f15565b91505092915050565b611f6081611ef4565b82525050565b6000602082019050611f7b6000830184611f57565b92915050565b60008060408385031215611f9857611f97611c31565b5b6000611fa685828601611f15565b9250506020611fb785828601611dec565b9150509250929050565b600060ff82169050919050565b611fd781611fc1565b82525050565b6000602082019050611ff26000830184611fce565b92915050565b60006020828403121561200e5761200d611c31565b5b600061201c84828501611e22565b91505092915050565b60006020828403121561203b5761203a611c31565b5b600061204984828501611dec565b91505092915050565b60007fff0000000000000000000000000000000000000000000000000000000000000082169050919050565b61208781612052565b82525050565b61209681611dc3565b82525050565b600081519050919050565b600082825260208201905092915050565b6000819050602082019050919050565b6120d181611e01565b82525050565b60006120e383836120c8565b60208301905092915050565b6000602082019050919050565b60006121078261209c565b61211181856120a7565b935061211c836120b8565b8060005b8381101561214d57815161213488826120d7565b975061213f836120ef565b925050600181019050612120565b5085935050505092915050565b600060e08201905061216f600083018a61207e565b81810360208301526121818189611d48565b905081810360408301526121958188611d48565b90506121a46060830187611e77565b6121b1608083018661208d565b6121be60a0830185611f57565b81810360c08301526121d081846120fc565b905098975050505050505050565b6121e781611fc1565b81146121f257600080fd5b50565b600081359050612204816121de565b92915050565b600080600080600080600060e0888a03121561222957612228611c31565b5b60006122378a828b01611dec565b97505060206122488a828b01611dec565b96505060406122598a828b01611e22565b955050606061226a8a828b01611e22565b945050608061227b8a828b016121f5565b93505060a061228c8a828b01611f15565b92505060c061229d8a828b01611f15565b91505092959891949750929550565b600080604083850312156122c3576122c2611c31565b5b60006122d185828601611dec565b92505060206122e285828601611dec565b9150509250929050565b7f4e487b7100000000000000000000000000000000000000000000000000000000600052602260045260246000fd5b6000600282049050600182168061233357607f821691505b602082108103612346576123456122ec565b5b50919050565b7f4e487b7100000000000000000000000000000000000000000000000000000000600052604160045260246000fd5b600060c0820190506123906000830189611f57565b61239d602083018861208d565b6123aa604083018761208d565b6123b76060830186611e77565b6123c46080830185611e77565b6123d160a0830184611e77565b979650505050505050565b60006040820190506123f1600083018561208d565b6123fe602083018461208d565b9392505050565b600060608201905061241a600083018661208d565b6124276020830185611e77565b6124346040830184611e77565b949350505050565b6000602082019050612451600083018461208d565b92915050565b7f4e487b7100000000000000000000000000000000000000000000000000000000600052601160045260246000fd5b600061249182611e01565b915061249c83611e01565b92508282019050808211156124b4576124b3612457565b5b92915050565b60006040820190506124cf600083018561208d565b6124dc6020830184611f57565b9392505050565b600060a0820190506124f86000830188611f57565b6125056020830187611f57565b6125126040830186611f57565b61251f6060830185611e77565b61252c608083018461208d565b9695505050505050565b600060808201905061254b6000830187611f57565b6125586020830186611fce565b6125656040830185611f57565b6125726060830184611f57565b95945050505050565b7f4e487b7100000000000000000000000000000000000000000000000000000000600052602160045260246000fdfea26469706673582212203dc94160c2c6f1692055faed2052a8fd5d88e2c7b752d8a046943a9cd85ea5ca64736f6c63430008190033",
  "linkReferences": {},
  "deployedLinkReferences": {}
}