{
  "_format": "hh-sol-artifact-1",
  "contractName": "SimpleCustomToken",
  "sourceName": "contracts/simple.sol",
  "abi": [
    {
      "inputs": [
        {
          "internalType": "address",
          "name": "defaultAdmin",
          "type": "address"
        },
        {
          "internalType": "address",
          "name": "minter",
          "type": "address"
        }
      ],
      "stateMutability": "nonpayable",
      "type": "constructor"
    },
    {
      "inputs": [],
      "name": "AccessControlBadConfirmation",
      "type": "error"
    },
    {
      "inputs": [
        {
          "internalType": "address",
          "name": "account",
          "type": "address"
        },
        {
          "internalType": "bytes32",
          "name": "neededRole",
          "type": "bytes32"
        }
      ],
      "name": "AccessControlUnauthorizedAccount",
      "type": "error"
    },
    {
      "inputs": [],
      "name": "ECDSAInvalidSignature",
      "type": "error"
    },
    {
      "inputs": [
        {
          "internalType": "uint256",
          "name": "length",
          "type": "uint256"
        }
      ],
      "name": "ECDSAInvalidSignatureLength",
      "type": "error"
    },
    {
      "inputs": [
        {
          "internalType": "bytes32",
          "name": "s",
          "type": "bytes32"
        }
      ],
      "name": "ECDSAInvalidSignatureS",
      "type": "error"
    },
    {
      "inputs": [
        {
          "internalType": "address",
          "name": "spender",
          "type": "address"
        },
        {
          "internalType": "uint256",
          "name": "allowance",
          "type": "uint256"
        },
        {
          "internalType": "uint256",
          "name": "needed",
          "type": "uint256"
        }
      ],
      "name": "ERC20InsufficientAllowance",
      "type": "error"
    },
    {
      "inputs": [
        {
          "internalType": "address",
          "name": "sender",
          "type": "address"
        },
        {
          "internalType": "uint256",
          "name": "balance",
          "type": "uint256"
        },
        {
          "internalType": "uint256",
          "name": "needed",
          "type": "uint256"
        }
      ],
      "name": "ERC20InsufficientBalance",
      "type": "error"
    },
    {
      "inputs": [
        {
          "internalType": "address",
          "name": "approver",
          "type": "address"
        }
      ],
      "name": "ERC20InvalidApprover",
      "type": "error"
    },
    {
      "inputs": [
        {
          "internalType": "address",
          "name": "receiver",
          "type": "address"
        }
      ],
      "name": "ERC20InvalidReceiver",
      "type": "error"
    },
    {
      "inputs": [
        {
          "internalType": "address",
          "name": "sender",
          "type": "address"
        }
      ],
      "name": "ERC20InvalidSender",
      "type": "error"
    },
    {
      "inputs": [
        {
          "internalType": "address",
          "name": "spender",
          "type": "address"
        }
      ],
      "name": "ERC20InvalidSpender",
      "type": "error"
    },
    {
      "inputs": [
        {
          "internalType": "uint256",
          "name": "deadline",
          "type": "uint256"
        }
      ],
      "name": "ERC2612ExpiredSignature",
      "type": "error"
    },
    {
      "inputs": [
        {
          "internalType": "address",
          "name": "signer",
          "type": "address"
        },
        {
          "internalType": "address",
          "name": "owner",
          "type": "address"
        }
      ],
      "name": "ERC2612InvalidSigner",
      "type": "error"
    },
    {
      "inputs": [
        {
          "internalType": "address",
          "name": "account",
          "type": "address"
        },
        {
          "internalType": "uint256",
          "name": "currentNonce",
          "type": "uint256"
        }
      ],
      "name": "InvalidAccountNonce",
      "type": "error"
    },
    {
      "inputs": [],
      "name": "InvalidShortString",
      "type": "error"
    },
    {
      "inputs": [
        {
          "internalType": "string",
          "name": "str",
          "type": "string"
        }
      ],
      "name": "StringTooLong",
      "type": "error"
    },
    {
      "anonymous": false,
      "inputs": [
        {
          "indexed": true,
          "internalType": "address",
          "name": "owner",
          "type": "address"
        },
        {
          "indexed": true,
          "internalType": "address",
          "name": "spender",
          "type": "address"
        },
        {
          "indexed": false,
          "internalType": "uint256",
          "name": "value",
          "type": "uint256"
        }
      ],
      "name": "Approval",
      "type": "event"
    },
    {
      "anonymous": false,
      "inputs": [],
      "name": "EIP712DomainChanged",
      "type": "event"
    },
    {
      "anonymous": false,
      "inputs": [
        {
          "indexed": true,
          "internalType": "bytes32",
          "name": "role",
          "type": "bytes32"
        },
        {
          "indexed": true,
          "internalType": "bytes32",
          "name": "previousAdminRole",
          "type": "bytes32"
        },
        {
          "indexed": true,
          "internalType": "bytes32",
          "name": "newAdminRole",
          "type": "bytes32"
        }
      ],
      "name": "RoleAdminChanged",
      "type": "event"
    },
    {
      "anonymous": false,
      "inputs": [
        {
          "indexed": true,
          "internalType": "bytes32",
          "name": "role",
          "type": "bytes32"
        },
        {
          "indexed": true,
          "internalType": "address",
          "name": "account",
          "type": "address"
        },
        {
          "indexed": true,
          "internalType": "address",
          "name": "sender",
          "type": "address"
        }
      ],
      "name": "RoleGranted",
      "type": "event"
    },
    {
      "anonymous": false,
      "inputs": [
        {
          "indexed": true,
          "internalType": "bytes32",
          "name": "role",
          "type": "bytes32"
        },
        {
          "indexed": true,
          "internalType": "address",
          "name": "account",
          "type": "address"
        },
        {
          "indexed": true,
          "internalType": "address",
          "name": "sender",
          "type": "address"
        }
      ],
      "name": "RoleRevoked",
      "type": "event"
    },
    {
      "anonymous": false,
      "inputs": [
        {
          "indexed": true,
          "internalType": "address",
          "name": "from",
          "type": "address"
        },
        {
          "indexed": true,
          "internalType": "address",
          "name": "to",
          "type": "address"
        },
        {
          "indexed": false,
          "internalType": "uint256",
          "name": "value",
          "type": "uint256"
        }
      ],
      "name": "Transfer",
      "type": "event"
    },
    {
      "inputs": [],
      "name": "DEFAULT_ADMIN_ROLE",
      "outputs": [
        {
          "internalType": "bytes32",
          "name": "",
          "type": "bytes32"
        }
      ],
      "stateMutability": "view",
      "type": "function"
    },
    {
      "inputs": [],
      "name": "DOMAIN_SEPARATOR",
      "outputs": [
        {
          "internalType": "bytes32",
          "name": "",
          "type": "bytes32"
        }
      ],
      "stateMutability": "view",
      "type": "function"
    },
    {
      "inputs": [],
      "name": "MINTER_ROLE",
      "outputs": [
        {
          "internalType": "bytes32",
          "name": "",
          "type": "bytes32"
        }
      ],
      "stateMutability": "view",
      "type": "function"
    },
    {
      "inputs": [
        {
          "internalType": "address",
          "name": "owner",
          "type": "address"
        },
        {
          "internalType": "address",
          "name": "spender",
          "type": "address"
        }
      ],
      "name": "allowance",
      "outputs": [
        {
          "internalType": "uint256",
          "name": "",
          "type": "uint256"
        }
      ],
      "stateMutability": "view",
      "type": "function"
    },
    {
      "inputs": [
        {
          "internalType": "address",
          "name": "spender",
          "type": "address"
        },
        {
          "internalType": "uint256",
          "name": "value",
          "type": "uint256"
        }
      ],
      "name": "approve",
      "outputs": [
        {
          "internalType": "bool",
          "name": "",
          "type": "bool"
        }
      ],
      "stateMutability": "nonpayable",
      "type": "function"
    },
    {
      "inputs": [
        {
          "internalType": "address",
          "name": "account",
          "type": "address"
        }
      ],
      "name": "balanceOf",
      "outputs": [
        {
          "internalType": "uint256",
          "name": "",
          "type": "uint256"
        }
      ],
      "stateMutability": "view",
      "type": "function"
    },
    {
      "inputs": [
        {
          "internalType": "uint256",
          "name": "value",
          "type": "uint256"
        }
      ],
      "name": "burn",
      "outputs": [],
      "stateMutability": "nonpayable",
      "type": "function"
    },
    {
      "inputs": [
        {
          "internalType": "address",
          "name": "account",
          "type": "address"
        },
        {
          "internalType": "uint256",
          "name": "amount",
          "type": "uint256"
        }
      ],
      "name": "burn",
      "outputs": [],
      "stateMutability": "nonpayable",
      "type": "function"
    },
    {
      "inputs": [
        {
          "internalType": "address",
          "name": "account",
          "type": "address"
        },
        {
          "internalType": "uint256",
          "name": "value",
          "type": "uint256"
        }
      ],
      "name": "burnFrom",
      "outputs": [],
      "stateMutability": "nonpayable",
      "type": "function"
    },
    {
      "inputs": [],
      "name": "decimals",
      "outputs": [
        {
          "internalType": "uint8",
          "name": "",
          "type": "uint8"
        }
      ],
      "stateMutability": "view",
      "type": "function"
    },
    {
      "inputs": [],
      "name": "eip712Domain",
      "outputs": [
        {
          "internalType": "bytes1",
          "name": "fields",
          "type": "bytes1"
        },
        {
          "internalType": "string",
          "name": "name",
          "type": "string"
        },
        {
          "internalType": "string",
          "name": "version",
          "type": "string"
        },
        {
          "internalType": "uint256",
          "name": "chainId",
          "type": "uint256"
        },
        {
          "internalType": "address",
          "name": "verifyingContract",
          "type": "address"
        },
        {
          "internalType": "bytes32",
          "name": "salt",
          "type": "bytes32"
        },
        {
          "internalType": "uint256[]",
          "name": "extensions",
          "type": "uint256[]"
        }
      ],
      "stateMutability": "view",
      "type": "function"
    },
    {
      "inputs": [
        {
          "internalType": "bytes32",
          "name": "role",
          "type": "bytes32"
        }
      ],
      "name": "getRoleAdmin",
      "outputs": [
        {
          "internalType": "bytes32",
          "name": "",
          "type": "bytes32"
        }
      ],
      "stateMutability": "view",
      "type": "function"
    },
    {
      "inputs": [
        {
          "internalType": "bytes32",
          "name": "role",
          "type": "bytes32"
        },
        {
          "internalType": "address",
          "name": "account",
          "type": "address"
        }
      ],
      "name": "grantRole",
      "outputs": [],
      "stateMutability": "nonpayable",
      "type": "function"
    },
    {
      "inputs": [
        {
          "internalType": "bytes32",
          "name": "role",
          "type": "bytes32"
        },
        {
          "internalType": "address",
          "name": "account",
          "type": "address"
        }
      ],
      "name": "hasRole",
      "outputs": [
        {
          "internalType": "bool",
          "name": "",
          "type": "bool"
        }
      ],
      "stateMutability": "view",
      "type": "function"
    },
    {
      "inputs": [
        {
          "internalType": "address",
          "name": "to",
          "type": "address"
        },
        {
          "internalType": "uint256",
          "name": "amount",
          "type": "uint256"
        }
      ],
      "name": "mint",
      "outputs": [],
      "stateMutability": "nonpayable",
      "type": "function"
    },
    {
      "inputs": [],
      "name": "name",
      "outputs": [
        {
          "internalType": "string",
          "name": "",
          "type": "string"
        }
      ],
      "stateMutability": "view",
      "type": "function"
    },
    {
      "inputs": [
        {
          "internalType": "address",
          "name": "owner",
          "type": "address"
        }
      ],
      "name": "nonces",
      "outputs": [
        {
          "internalType": "uint256",
          "name": "",
          "type": "uint256"
        }
      ],
      "stateMutability": "view",
      "type": "function"
    },
    {
      "inputs": [
        {
          "internalType": "address",
          "name": "owner",
          "type": "address"
        },
        {
          "internalType": "address",
          "name": "spender",
          "type": "address"
        },
        {
          "internalType": "uint256",
          "name": "value",
          "type": "uint256"
        },
        {
          "internalType": "uint256",
          "name": "deadline",
          "type": "uint256"
        },
        {
          "internalType": "uint8",
          "name": "v",
          "type": "uint8"
        },
        {
          "internalType": "bytes32",
          "name": "r",
          "type": "bytes32"
        },
        {
          "internalType": "bytes32",
          "name": "s",
          "type": "bytes32"
        }
      ],
      "name": "permit",
      "outputs": [],
      "stateMutability": "nonpayable",
      "type": "function"
    },
    {
      "inputs": [
        {
          "internalType": "bytes32",
          "name": "role",
          "type": "bytes32"
        },
        {
          "internalType": "address",
          "name": "callerConfirmation",
          "type": "address"
        }
      ],
      "name": "renounceRole",
      "outputs": [],
      "stateMutability": "nonpayable",
      "type": "function"
    },
    {
      "inputs": [
        {
          "internalType": "bytes32",
          "name": "role",
          "type": "bytes32"
        },
        {
          "internalType": "address",
          "name": "account",
          "type": "address"
        }
      ],
      "name": "revokeRole",
      "outputs": [],
      "stateMutability": "nonpayable",
      "type": "function"
    },
    {
      "inputs": [
        {
          "internalType": "bytes4",
          "name": "interfaceId",
          "type": "bytes4"
        }
      ],
      "name": "supportsInterface",
      "outputs": [
        {
          "internalType": "bool",
          "name": "",
          "type": "bool"
        }
      ],
      "stateMutability": "view",
      "type": "function"
    },
    {
      "inputs": [],
      "name": "symbol",
      "outputs": [
        {
          "internalType": "string",
          "name": "",
          "type": "string"
        }
      ],
      "stateMutability": "view",
      "type": "function"
    },
    {
      "inputs": [],
      "name": "totalSupply",
      "outputs": [
        {
          "internalType": "uint256",
          "name": "",
          "type": "uint256"
        }
      ],
      "stateMutability": "view",
      "type": "function"
    },
    {
      "inputs": [
        {
          "internalType": "address",
          "name": "to",
          "type": "address"
        },
        {
          "internalType": "uint256",
          "name": "value",
          "type": "uint256"
        }
      ],
      "name": "transfer",
      "outputs": [
        {
          "internalType": "bool",
          "name": "",
          "type": "bool"
        }
      ],
      "stateMutability": "nonpayable",
      "type": "function"
    },
    {
      "inputs": [
        {
          "internalType": "address",
          "name": "from",
          "type": "address"
        },
        {
          "internalType": "address",
          "name": "to",
          "type": "address"
        },
        {
          "internalType": "uint256",
          "name": "value",
          "type": "uint256"
        }
      ],
      "name": "transferFrom",
      "outputs": [
        {
          "internalType": "bool",
          "name": "",
          "type": "bool"
        }
      ],
      "stateMutability": "nonpayable",
      "type": "function"
    }
  ],
  "bytecode": "0x6101606040523480156200001257600080fd5b50604051620036fa380380620036fa83398181016040528101906200003891906200084a565b6040518060400160405280601181526020017f53696d706c65437573746f6d546f6b656e000000000000000000000000000000815250806040518060400160405280600181526020017f31000000000000000000000000000000000000000000000000000000000000008152506040518060400160405280601181526020017f53696d706c65437573746f6d546f6b656e0000000000000000000000000000008152506040518060400160405280600381526020017f5343540000000000000000000000000000000000000000000000000000000000815250816003908162000122919062000b0b565b50806004908162000134919062000b0b565b5050506200014d6006836200027760201b90919060201c565b61012081815250506200016b6007826200027760201b90919060201c565b6101408181525050818051906020012060e08181525050808051906020012061010081815250504660a08181525050620001aa620002cf60201b60201c565b608081815250503073ffffffffffffffffffffffffffffffffffffffff1660c08173ffffffffffffffffffffffffffffffffffffffff16815250505050506200022633620001fd6200032c60201b60201c565b600a6200020b919062000d82565b6127106200021a919062000dd3565b6200033560201b60201c565b6200023b6000801b83620003c260201b60201c565b506200026e7f9f2df0fed2c77648de5860a4cc508cd0818c85b8b8a1ab4ceeef8d981c8956a682620003c260201b60201c565b505050620010bf565b60006020835110156200029d576200029583620004c660201b60201c565b9050620002c9565b82620002af836200053360201b60201c565b6000019081620002c0919062000b0b565b5060ff60001b90505b92915050565b60007f8b73c3c69bb8fe3d512ecc4cf759cc79239f7b179b0ffacaa9a75d522b39400f60e0516101005146306040516020016200031195949392919062000e5b565b60405160208183030381529060405280519060200120905090565b60006012905090565b600073ffffffffffffffffffffffffffffffffffffffff168273ffffffffffffffffffffffffffffffffffffffff1603620003aa5760006040517fec442f05000000000000000000000000000000000000000000000000000000008152600401620003a1919062000eb8565b60405180910390fd5b620003be600083836200053d60201b60201c565b5050565b6000620003d683836200076d60201b60201c565b620004bb5760016005600085815260200190815260200160002060000160008473ffffffffffffffffffffffffffffffffffffffff1673ffffffffffffffffffffffffffffffffffffffff16815260200190815260200160002060006101000a81548160ff02191690831515021790555062000457620007d860201b60201c565b73ffffffffffffffffffffffffffffffffffffffff168273ffffffffffffffffffffffffffffffffffffffff16847f2f8788117e7eff1d82e926ec794901d17c78024a50270940304540a733656f0d60405160405180910390a460019050620004c0565b600090505b92915050565b600080829050601f815111156200051657826040517f305a27a90000000000000000000000000000000000000000000000000000000081526004016200050d919062000f64565b60405180910390fd5b805181620005249062000fba565b60001c1760001b915050919050565b6000819050919050565b600073ffffffffffffffffffffffffffffffffffffffff168373ffffffffffffffffffffffffffffffffffffffff1603620005935780600260008282546200058691906200102a565b9250508190555062000669565b60008060008573ffffffffffffffffffffffffffffffffffffffff1673ffffffffffffffffffffffffffffffffffffffff1681526020019081526020016000205490508181101562000622578381836040517fe450d38c000000000000000000000000000000000000000000000000000000008152600401620006199392919062001065565b60405180910390fd5b8181036000808673ffffffffffffffffffffffffffffffffffffffff1673ffffffffffffffffffffffffffffffffffffffff16815260200190815260200160002081905550505b600073ffffffffffffffffffffffffffffffffffffffff168273ffffffffffffffffffffffffffffffffffffffff1603620006b4578060026000828254039250508190555062000701565b806000808473ffffffffffffffffffffffffffffffffffffffff1673ffffffffffffffffffffffffffffffffffffffff168152602001908152602001600020600082825401925050819055505b8173ffffffffffffffffffffffffffffffffffffffff168373ffffffffffffffffffffffffffffffffffffffff167fddf252ad1be2c89b69c2b068fc378daa952ba7f163c4a11628f55a4df523b3ef83604051620007609190620010a2565b60405180910390a3505050565b60006005600084815260200190815260200160002060000160008373ffffffffffffffffffffffffffffffffffffffff1673ffffffffffffffffffffffffffffffffffffffff16815260200190815260200160002060009054906101000a900460ff16905092915050565b600033905090565b600080fd5b600073ffffffffffffffffffffffffffffffffffffffff82169050919050565b60006200081282620007e5565b9050919050565b620008248162000805565b81146200083057600080fd5b50565b600081519050620008448162000819565b92915050565b60008060408385031215620008645762000863620007e0565b5b6000620008748582860162000833565b9250506020620008878582860162000833565b9150509250929050565b600081519050919050565b7f4e487b7100000000000000000000000000000000000000000000000000000000600052604160045260246000fd5b7f4e487b7100000000000000000000000000000000000000000000000000000000600052602260045260246000fd5b600060028204905060018216806200091357607f821691505b602082108103620009295762000928620008cb565b5b50919050565b60008190508160005260206000209050919050565b60006020601f8301049050919050565b600082821b905092915050565b600060088302620009937fffffffffffffffffffffffffffffffffffffffffffffffffffffffffffffffff8262000954565b6200099f868362000954565b95508019841693508086168417925050509392505050565b6000819050919050565b6000819050919050565b6000620009ec620009e6620009e084620009b7565b620009c1565b620009b7565b9050919050565b6000819050919050565b62000a0883620009cb565b62000a2062000a1782620009f3565b84845462000961565b825550505050565b600090565b62000a3762000a28565b62000a44818484620009fd565b505050565b5b8181101562000a6c5762000a6060008262000a2d565b60018101905062000a4a565b5050565b601f82111562000abb5762000a85816200092f565b62000a908462000944565b8101602085101562000aa0578190505b62000ab862000aaf8562000944565b83018262000a49565b50505b505050565b600082821c905092915050565b600062000ae06000198460080262000ac0565b1980831691505092915050565b600062000afb838362000acd565b9150826002028217905092915050565b62000b168262000891565b67ffffffffffffffff81111562000b325762000b316200089c565b5b62000b3e8254620008fa565b62000b4b82828562000a70565b600060209050601f83116001811462000b83576000841562000b6e578287015190505b62000b7a858262000aed565b86555062000bea565b601f19841662000b93866200092f565b60005b8281101562000bbd5784890151825560018201915060208501945060208101905062000b96565b8683101562000bdd578489015162000bd9601f89168262000acd565b8355505b6001600288020188555050505b505050505050565b7f4e487b7100000000000000000000000000000000000000000000000000000000600052601160045260246000fd5b60008160011c9050919050565b6000808291508390505b600185111562000c805780860481111562000c585762000c5762000bf2565b5b600185161562000c685780820291505b808102905062000c788562000c21565b945062000c38565b94509492505050565b60008262000c9b576001905062000d6e565b8162000cab576000905062000d6e565b816001811462000cc4576002811462000ccf5762000d05565b600191505062000d6e565b60ff84111562000ce45762000ce362000bf2565b5b8360020a91508482111562000cfe5762000cfd62000bf2565b5b5062000d6e565b5060208310610133831016604e8410600b841016171562000d3f5782820a90508381111562000d395762000d3862000bf2565b5b62000d6e565b62000d4e848484600162000c2e565b9250905081840481111562000d685762000d6762000bf2565b5b81810290505b9392505050565b600060ff82169050919050565b600062000d8f82620009b7565b915062000d9c8362000d75565b925062000dcb7fffffffffffffffffffffffffffffffffffffffffffffffffffffffffffffffff848462000c89565b905092915050565b600062000de082620009b7565b915062000ded83620009b7565b925082820262000dfd81620009b7565b9150828204841483151762000e175762000e1662000bf2565b5b5092915050565b6000819050919050565b62000e338162000e1e565b82525050565b62000e4481620009b7565b82525050565b62000e558162000805565b82525050565b600060a08201905062000e72600083018862000e28565b62000e81602083018762000e28565b62000e90604083018662000e28565b62000e9f606083018562000e39565b62000eae608083018462000e4a565b9695505050505050565b600060208201905062000ecf600083018462000e4a565b92915050565b600082825260208201905092915050565b60005b8381101562000f0657808201518184015260208101905062000ee9565b60008484015250505050565b6000601f19601f8301169050919050565b600062000f308262000891565b62000f3c818562000ed5565b935062000f4e81856020860162000ee6565b62000f598162000f12565b840191505092915050565b6000602082019050818103600083015262000f80818462000f23565b905092915050565b600081519050919050565b6000819050602082019050919050565b600062000fb1825162000e1e565b80915050919050565b600062000fc78262000f88565b8262000fd38462000f93565b905062000fe08162000fa3565b9250602082101562001023576200101e7fffffffffffffffffffffffffffffffffffffffffffffffffffffffffffffffff8360200360080262000954565b831692505b5050919050565b60006200103782620009b7565b91506200104483620009b7565b92508282019050808211156200105f576200105e62000bf2565b5b92915050565b60006060820190506200107c600083018662000e4a565b6200108b602083018562000e39565b6200109a604083018462000e39565b949350505050565b6000602082019050620010b9600083018462000e39565b92915050565b60805160a05160c05160e0516101005161012051610140516125e06200111a600039600061126e01526000611233015260006117d4015260006117b301526000610f3701526000610f8d01526000610fb601526125e06000f3fe608060405234801561001057600080fd5b50600436106101735760003560e01c806370a08231116100de5780639dc29fac11610097578063d505accf11610071578063d505accf14610478578063d539139314610494578063d547741f146104b2578063dd62ed3e146104ce57610173565b80639dc29fac1461040e578063a217fddf1461042a578063a9059cbb1461044857610173565b806370a082311461032057806379cc6790146103505780637ecebe001461036c57806384b0196e1461039c57806391d14854146103c057806395d89b41146103f057610173565b80632f2ff15d116101305780632f2ff15d14610274578063313ce567146102905780633644e515146102ae57806336568abe146102cc57806340c10f19146102e857806342966c681461030457610173565b806301ffc9a71461017857806306fdde03146101a8578063095ea7b3146101c657806318160ddd146101f657806323b872dd14610214578063248a9ca314610244575b600080fd5b610192600480360381019061018d9190611c8e565b6104fe565b60405161019f9190611cd6565b60405180910390f35b6101b0610578565b6040516101bd9190611d81565b60405180910390f35b6101e060048036038101906101db9190611e37565b61060a565b6040516101ed9190611cd6565b60405180910390f35b6101fe61062d565b60405161020b9190611e86565b60405180910390f35b61022e60048036038101906102299190611ea1565b610637565b60405161023b9190611cd6565b60405180910390f35b61025e60048036038101906102599190611f2a565b610666565b60405161026b9190611f66565b60405180910390f35b61028e60048036038101906102899190611f81565b610686565b005b6102986106a8565b6040516102a59190611fdd565b60405180910390f35b6102b66106b1565b6040516102c39190611f66565b60405180910390f35b6102e660048036038101906102e19190611f81565b6106c0565b005b61030260048036038101906102fd9190611e37565b61073b565b005b61031e60048036038101906103199190611ff8565b610774565b005b61033a60048036038101906103359190612025565b610788565b6040516103479190611e86565b60405180910390f35b61036a60048036038101906103659190611e37565b6107d0565b005b61038660048036038101906103819190612025565b6107f0565b6040516103939190611e86565b60405180910390f35b6103a4610802565b6040516103b7979695949392919061215a565b60405180910390f35b6103da60048036038101906103d59190611f81565b6108ac565b6040516103e79190611cd6565b60405180910390f35b6103f8610917565b6040516104059190611d81565b60405180910390f35b61042860048036038101906104239190611e37565b6109a9565b005b6104326109e2565b60405161043f9190611f66565b60405180910390f35b610462600480360381019061045d9190611e37565b6109e9565b60405161046f9190611cd6565b60405180910390f35b610492600480360381019061048d919061220a565b610a0c565b005b61049c610b54565b6040516104a99190611f66565b60405180910390f35b6104cc60048036038101906104c79190611f81565b610b78565b005b6104e860048036038101906104e391906122ac565b610b9a565b6040516104f59190611e86565b60405180910390f35b60007f7965db0b000000000000000000000000000000000000000000000000000000007bffffffffffffffffffffffffffffffffffffffffffffffffffffffff1916827bffffffffffffffffffffffffffffffffffffffffffffffffffffffff19161480610571575061057082610c21565b5b9050919050565b6060600380546105879061231b565b80601f01602080910402602001604051908101604052809291908181526020018280546105b39061231b565b80156106005780601f106105d557610100808354040283529160200191610600565b820191906000526020600020905b8154815290600101906020018083116105e357829003601f168201915b5050505050905090565b600080610615610c8b565b9050610622818585610c93565b600191505092915050565b6000600254905090565b600080610642610c8b565b905061064f858285610ca5565b61065a858585610d39565b60019150509392505050565b600060056000838152602001908152602001600020600101549050919050565b61068f82610666565b61069881610e2d565b6106a28383610e41565b50505050565b60006012905090565b60006106bb610f33565b905090565b6106c8610c8b565b73ffffffffffffffffffffffffffffffffffffffff168173ffffffffffffffffffffffffffffffffffffffff161461072c576040517f6697b23200000000000000000000000000000000000000000000000000000000815260040160405180910390fd5b6107368282610fea565b505050565b7f9f2df0fed2c77648de5860a4cc508cd0818c85b8b8a1ab4ceeef8d981c8956a661076581610e2d565b61076f83836110dd565b505050565b61078561077f610c8b565b8261115f565b50565b60008060008373ffffffffffffffffffffffffffffffffffffffff1673ffffffffffffffffffffffffffffffffffffffff168152602001908152602001600020549050919050565b6107e2826107dc610c8b565b83610ca5565b6107ec828261115f565b5050565b60006107fb826111e1565b9050919050565b60006060806000806000606061081661122a565b61081e611265565b46306000801b600067ffffffffffffffff81111561083f5761083e61234c565b5b60405190808252806020026020018201604052801561086d5781602001602082028036833780820191505090505b507f0f00000000000000000000000000000000000000000000000000000000000000959493929190965096509650965096509650965090919293949596565b60006005600084815260200190815260200160002060000160008373ffffffffffffffffffffffffffffffffffffffff1673ffffffffffffffffffffffffffffffffffffffff16815260200190815260200160002060009054906101000a900460ff16905092915050565b6060600480546109269061231b565b80601f01602080910402602001604051908101604052809291908181526020018280546109529061231b565b801561099f5780601f106109745761010080835404028352916020019161099f565b820191906000526020600020905b81548152906001019060200180831161098257829003601f168201915b5050505050905090565b7f9f2df0fed2c77648de5860a4cc508cd0818c85b8b8a1ab4ceeef8d981c8956a66109d381610e2d565b6109dd838361115f565b505050565b6000801b81565b6000806109f4610c8b565b9050610a01818585610d39565b600191505092915050565b83421115610a5157836040517f62791302000000000000000000000000000000000000000000000000000000008152600401610a489190611e86565b60405180910390fd5b60007f6e71edae12b1b97f4d1f60370fef10105fa2faae0126114a169c64845d6126c9888888610a808c6112a0565b89604051602001610a969695949392919061237b565b6040516020818303038152906040528051906020012090506000610ab9826112f7565b90506000610ac982878787611311565b90508973ffffffffffffffffffffffffffffffffffffffff168173ffffffffffffffffffffffffffffffffffffffff1614610b3d57808a6040517f4b800e46000000000000000000000000000000000000000000000000000000008152600401610b349291906123dc565b60405180910390fd5b610b488a8a8a610c93565b50505050505050505050565b7f9f2df0fed2c77648de5860a4cc508cd0818c85b8b8a1ab4ceeef8d981c8956a681565b610b8182610666565b610b8a81610e2d565b610b948383610fea565b50505050565b6000600160008473ffffffffffffffffffffffffffffffffffffffff1673ffffffffffffffffffffffffffffffffffffffff16815260200190815260200160002060008373ffffffffffffffffffffffffffffffffffffffff1673ffffffffffffffffffffffffffffffffffffffff16815260200190815260200160002054905092915050565b60007f01ffc9a7000000000000000000000000000000000000000000000000000000007bffffffffffffffffffffffffffffffffffffffffffffffffffffffff1916827bffffffffffffffffffffffffffffffffffffffffffffffffffffffff1916149050919050565b600033905090565b610ca08383836001611341565b505050565b6000610cb18484610b9a565b90507fffffffffffffffffffffffffffffffffffffffffffffffffffffffffffffffff8114610d335781811015610d23578281836040517ffb8f41b2000000000000000000000000000000000000000000000000000000008152600401610d1a93929190612405565b60405180910390fd5b610d3284848484036000611341565b5b50505050565b600073ffffffffffffffffffffffffffffffffffffffff168373ffffffffffffffffffffffffffffffffffffffff1603610dab5760006040517f96c6fd1e000000000000000000000000000000000000000000000000000000008152600401610da2919061243c565b60405180910390fd5b600073ffffffffffffffffffffffffffffffffffffffff168273ffffffffffffffffffffffffffffffffffffffff1603610e1d5760006040517fec442f05000000000000000000000000000000000000000000000000000000008152600401610e14919061243c565b60405180910390fd5b610e28838383611518565b505050565b610e3e81610e39610c8b565b61173d565b50565b6000610e4d83836108ac565b610f285760016005600085815260200190815260200160002060000160008473ffffffffffffffffffffffffffffffffffffffff1673ffffffffffffffffffffffffffffffffffffffff16815260200190815260200160002060006101000a81548160ff021916908315150217905550610ec5610c8b565b73ffffffffffffffffffffffffffffffffffffffff168273ffffffffffffffffffffffffffffffffffffffff16847f2f8788117e7eff1d82e926ec794901d17c78024a50270940304540a733656f0d60405160405180910390a460019050610f2d565b600090505b92915050565b60007f000000000000000000000000000000000000000000000000000000000000000073ffffffffffffffffffffffffffffffffffffffff163073ffffffffffffffffffffffffffffffffffffffff16148015610faf57507f000000000000000000000000000000000000000000000000000000000000000046145b15610fdc577f00000000000000000000000000000000000000000000000000000000000000009050610fe7565b610fe461178e565b90505b90565b6000610ff683836108ac565b156110d25760006005600085815260200190815260200160002060000160008473ffffffffffffffffffffffffffffffffffffffff1673ffffffffffffffffffffffffffffffffffffffff16815260200190815260200160002060006101000a81548160ff02191690831515021790555061106f610c8b565b73ffffffffffffffffffffffffffffffffffffffff168273ffffffffffffffffffffffffffffffffffffffff16847ff6391f5c32d9c69d2a47ea670b442974b53935d1edc7fd64eb21e047a839171b60405160405180910390a4600190506110d7565b600090505b92915050565b600073ffffffffffffffffffffffffffffffffffffffff168273ffffffffffffffffffffffffffffffffffffffff160361114f5760006040517fec442f05000000000000000000000000000000000000000000000000000000008152600401611146919061243c565b60405180910390fd5b61115b60008383611518565b5050565b600073ffffffffffffffffffffffffffffffffffffffff168273ffffffffffffffffffffffffffffffffffffffff16036111d15760006040517f96c6fd1e0000000000000000000000000000000000000000000000000000000081526004016111c8919061243c565b60405180910390fd5b6111dd82600083611518565b5050565b6000600860008373ffffffffffffffffffffffffffffffffffffffff1673ffffffffffffffffffffffffffffffffffffffff168152602001908152602001600020549050919050565b606061126060067f000000000000000000000000000000000000000000000000000000000000000061182490919063ffffffff16565b905090565b606061129b60077f000000000000000000000000000000000000000000000000000000000000000061182490919063ffffffff16565b905090565b6000600860008373ffffffffffffffffffffffffffffffffffffffff1673ffffffffffffffffffffffffffffffffffffffff1681526020019081526020016000206000815480929190600101919050559050919050565b600061130a611304610f33565b836118d4565b9050919050565b60008060008061132388888888611915565b9250925092506113338282611a09565b829350505050949350505050565b600073ffffffffffffffffffffffffffffffffffffffff168473ffffffffffffffffffffffffffffffffffffffff16036113b35760006040517fe602df050000000000000000000000000000000000000000000000000000000081526004016113aa919061243c565b60405180910390fd5b600073ffffffffffffffffffffffffffffffffffffffff168373ffffffffffffffffffffffffffffffffffffffff16036114255760006040517f94280d6200000000000000000000000000000000000000000000000000000000815260040161141c919061243c565b60405180910390fd5b81600160008673ffffffffffffffffffffffffffffffffffffffff1673ffffffffffffffffffffffffffffffffffffffff16815260200190815260200160002060008573ffffffffffffffffffffffffffffffffffffffff1673ffffffffffffffffffffffffffffffffffffffff168152602001908152602001600020819055508015611512578273ffffffffffffffffffffffffffffffffffffffff168473ffffffffffffffffffffffffffffffffffffffff167f8c5be1e5ebec7d5bd14f71427d1e84f3dd0314c0f7b2291e5b200ac8c7c3b925846040516115099190611e86565b60405180910390a35b50505050565b600073ffffffffffffffffffffffffffffffffffffffff168373ffffffffffffffffffffffffffffffffffffffff160361156a57806002600082825461155e9190612486565b9250508190555061163d565b60008060008573ffffffffffffffffffffffffffffffffffffffff1673ffffffffffffffffffffffffffffffffffffffff168152602001908152602001600020549050818110156115f6578381836040517fe450d38c0000000000000000000000000000000000000000000000000000000081526004016115ed93929190612405565b60405180910390fd5b8181036000808673ffffffffffffffffffffffffffffffffffffffff1673ffffffffffffffffffffffffffffffffffffffff16815260200190815260200160002081905550505b600073ffffffffffffffffffffffffffffffffffffffff168273ffffffffffffffffffffffffffffffffffffffff160361168657806002600082825403925050819055506116d3565b806000808473ffffffffffffffffffffffffffffffffffffffff1673ffffffffffffffffffffffffffffffffffffffff168152602001908152602001600020600082825401925050819055505b8173ffffffffffffffffffffffffffffffffffffffff168373ffffffffffffffffffffffffffffffffffffffff167fddf252ad1be2c89b69c2b068fc378daa952ba7f163c4a11628f55a4df523b3ef836040516117309190611e86565b60405180910390a3505050565b61174782826108ac565b61178a5780826040517fe2517d3f0000000000000000000000000000000000000000000000000000000081526004016117819291906124ba565b60405180910390fd5b5050565b60007f8b73c3c69bb8fe3d512ecc4cf759cc79239f7b179b0ffacaa9a75d522b39400f7f00000000000000000000000000000000000000000000000000000000000000007f000000000000000000000000000000000000000000000000000000000000000046306040516020016118099594939291906124e3565b60405160208183030381529060405280519060200120905090565b606060ff60001b83146118415761183a83611b6d565b90506118ce565b81805461184d9061231b565b80601f01602080910402602001604051908101604052809291908181526020018280546118799061231b565b80156118c65780601f1061189b576101008083540402835291602001916118c6565b820191906000526020600020905b8154815290600101906020018083116118a957829003601f168201915b505050505090505b92915050565b60006040517f190100000000000000000000000000000000000000000000000000000000000081528360028201528260228201526042812091505092915050565b60008060007f7fffffffffffffffffffffffffffffff5d576e7357a4501ddfe92f46681b20a08460001c11156119555760006003859250925092506119ff565b60006001888888886040516000815260200160405260405161197a9493929190612536565b6020604051602081039080840390855afa15801561199c573d6000803e3d6000fd5b505050602060405103519050600073ffffffffffffffffffffffffffffffffffffffff168173ffffffffffffffffffffffffffffffffffffffff16036119f057600060016000801b935093509350506119ff565b8060008060001b935093509350505b9450945094915050565b60006003811115611a1d57611a1c61257b565b5b826003811115611a3057611a2f61257b565b5b0315611b695760016003811115611a4a57611a4961257b565b5b826003811115611a5d57611a5c61257b565b5b03611a94576040517ff645eedf00000000000000000000000000000000000000000000000000000000815260040160405180910390fd5b60026003811115611aa857611aa761257b565b5b826003811115611abb57611aba61257b565b5b03611b00578060001c6040517ffce698f7000000000000000000000000000000000000000000000000000000008152600401611af79190611e86565b60405180910390fd5b600380811115611b1357611b1261257b565b5b826003811115611b2657611b2561257b565b5b03611b6857806040517fd78bce0c000000000000000000000000000000000000000000000000000000008152600401611b5f9190611f66565b60405180910390fd5b5b5050565b60606000611b7a83611be1565b90506000602067ffffffffffffffff811115611b9957611b9861234c565b5b6040519080825280601f01601f191660200182016040528015611bcb5781602001600182028036833780820191505090505b5090508181528360208201528092505050919050565b60008060ff8360001c169050601f811115611c28576040517fb3512b0c00000000000000000000000000000000000000000000000000000000815260040160405180910390fd5b80915050919050565b600080fd5b60007fffffffff0000000000000000000000000000000000000000000000000000000082169050919050565b611c6b81611c36565b8114611c7657600080fd5b50565b600081359050611c8881611c62565b92915050565b600060208284031215611ca457611ca3611c31565b5b6000611cb284828501611c79565b91505092915050565b60008115159050919050565b611cd081611cbb565b82525050565b6000602082019050611ceb6000830184611cc7565b92915050565b600081519050919050565b600082825260208201905092915050565b60005b83811015611d2b578082015181840152602081019050611d10565b60008484015250505050565b6000601f19601f8301169050919050565b6000611d5382611cf1565b611d5d8185611cfc565b9350611d6d818560208601611d0d565b611d7681611d37565b840191505092915050565b60006020820190508181036000830152611d9b8184611d48565b905092915050565b600073ffffffffffffffffffffffffffffffffffffffff82169050919050565b6000611dce82611da3565b9050919050565b611dde81611dc3565b8114611de957600080fd5b50565b600081359050611dfb81611dd5565b92915050565b6000819050919050565b611e1481611e01565b8114611e1f57600080fd5b50565b600081359050611e3181611e0b565b92915050565b60008060408385031215611e4e57611e4d611c31565b5b6000611e5c85828601611dec565b9250506020611e6d85828601611e22565b9150509250929050565b611e8081611e01565b82525050565b6000602082019050611e9b6000830184611e77565b92915050565b600080600060608486031215611eba57611eb9611c31565b5b6000611ec886828701611dec565b9350506020611ed986828701611dec565b9250506040611eea86828701611e22565b9150509250925092565b6000819050919050565b611f0781611ef4565b8114611f1257600080fd5b50565b600081359050611f2481611efe565b92915050565b600060208284031215611f4057611f3f611c31565b5b6000611f4e84828501611f15565b91505092915050565b611f6081611ef4565b82525050565b6000602082019050611f7b6000830184611f57565b92915050565b60008060408385031215611f9857611f97611c31565b5b6000611fa685828601611f15565b9250506020611fb785828601611dec565b9150509250929050565b600060ff82169050919050565b611fd781611fc1565b82525050565b6000602082019050611ff26000830184611fce565b92915050565b60006020828403121561200e5761200d611c31565b5b600061201c84828501611e22565b91505092915050565b60006020828403121561203b5761203a611c31565b5b600061204984828501611dec565b91505092915050565b60007fff0000000000000000000000000000000000000000000000000000000000000082169050919050565b61208781612052565b82525050565b61209681611dc3565b82525050565b600081519050919050565b600082825260208201905092915050565b6000819050602082019050919050565b6120d181611e01565b82525050565b60006120e383836120c8565b60208301905092915050565b6000602082019050919050565b60006121078261209c565b61211181856120a7565b935061211c836120b8565b8060005b8381101561214d57815161213488826120d7565b975061213f836120ef565b925050600181019050612120565b5085935050505092915050565b600060e08201905061216f600083018a61207e565b81810360208301526121818189611d48565b905081810360408301526121958188611d48565b90506121a46060830187611e77565b6121b1608083018661208d565b6121be60a0830185611f57565b81810360c08301526121d081846120fc565b905098975050505050505050565b6121e781611fc1565b81146121f257600080fd5b50565b600081359050612204816121de565b92915050565b600080600080600080600060e0888a03121561222957612228611c31565b5b60006122378a828b01611dec565b97505060206122488a828b01611dec565b96505060406122598a828b01611e22565b955050606061226a8a828b01611e22565b945050608061227b8a828b016121f5565b93505060a061228c8a828b01611f15565b92505060c061229d8a828b01611f15565b91505092959891949750929550565b600080604083850312156122c3576122c2611c31565b5b60006122d185828601611dec565b92505060206122e285828601611dec565b9150509250929050565b7f4e487b7100000000000000000000000000000000000000000000000000000000600052602260045260246000fd5b6000600282049050600182168061233357607f821691505b602082108103612346576123456122ec565b5b50919050565b7f4e487b7100000000000000000000000000000000000000000000000000000000600052604160045260246000fd5b600060c0820190506123906000830189611f57565b61239d602083018861208d565b6123aa604083018761208d565b6123b76060830186611e77565b6123c46080830185611e77565b6123d160a0830184611e77565b979650505050505050565b60006040820190506123f1600083018561208d565b6123fe602083018461208d565b9392505050565b600060608201905061241a600083018661208d565b6124276020830185611e77565b6124346040830184611e77565b949350505050565b6000602082019050612451600083018461208d565b92915050565b7f4e487b7100000000000000000000000000000000000000000000000000000000600052601160045260246000fd5b600061249182611e01565b915061249c83611e01565b92508282019050808211156124b4576124b3612457565b5b92915050565b60006040820190506124cf600083018561208d565b6124dc6020830184611f57565b9392505050565b600060a0820190506124f86000830188611f57565b6125056020830187611f57565b6125126040830186611f57565b61251f6060830185611e77565b61252c608083018461208d565b9695505050505050565b600060808201905061254b6000830187611f57565b6125586020830186611fce565b6125656040830185611f57565b6125726060830184611f57565b95945050505050565b7f4e487b7100000000000000000000000000000000000000000000000000000000600052602160045260246000fdfea26469706673582212208126a7f08aaa254afc5bef55a7ee7e9235435719e98157557958ad24111c996164736f6c63430008140033",
  "linkReferences": {},
  "deployedLinkReferences": {}
}